{
  "contractName": "FeedMe",
  "abi": [
    {
      "constant": true,
      "inputs": [
        {
          "name": "",
          "type": "address"
        }
      ],
      "name": "suppliers",
      "outputs": [
        {
          "name": "id",
          "type": "uint256"
        },
        {
          "name": "name",
          "type": "string"
        },
        {
          "name": "zipCode",
          "type": "uint256"
        },
        {
          "name": "offering",
          "type": "string"
        },
        {
          "name": "restriction",
          "type": "string"
        },
        {
          "name": "status",
          "type": "bool"
        }
      ],
      "payable": false,
      "stateMutability": "view",
      "type": "function"
    },
    {
      "constant": true,
      "inputs": [
        {
          "name": "",
          "type": "uint256"
        }
      ],
      "name": "supplierAddrs",
      "outputs": [
        {
          "name": "",
          "type": "address"
        }
      ],
      "payable": false,
      "stateMutability": "view",
      "type": "function"
    },
    {
      "constant": true,
      "inputs": [],
      "name": "owner",
      "outputs": [
        {
          "name": "",
          "type": "address"
        }
      ],
      "payable": false,
      "stateMutability": "view",
      "type": "function"
    },
    {
      "constant": true,
      "inputs": [],
      "name": "mutex",
      "outputs": [
        {
          "name": "",
          "type": "bool"
        }
      ],
      "payable": false,
      "stateMutability": "view",
      "type": "function"
    },
    {
      "constant": true,
      "inputs": [],
      "name": "totalSuppliers",
      "outputs": [
        {
          "name": "",
          "type": "uint256"
        }
      ],
      "payable": false,
      "stateMutability": "view",
      "type": "function"
    },
    {
      "constant": true,
      "inputs": [
        {
          "name": "",
          "type": "address"
        }
      ],
      "name": "users",
      "outputs": [
        {
          "name": "name",
          "type": "string"
        },
        {
          "name": "zipCode",
          "type": "uint256"
        }
      ],
      "payable": false,
      "stateMutability": "view",
      "type": "function"
    },
    {
      "constant": true,
      "inputs": [],
      "name": "totalUsers",
      "outputs": [
        {
          "name": "",
          "type": "uint256"
        }
      ],
      "payable": false,
      "stateMutability": "view",
      "type": "function"
    },
    {
      "constant": true,
      "inputs": [
        {
          "name": "",
          "type": "uint256"
        }
      ],
      "name": "userAddrs",
      "outputs": [
        {
          "name": "",
          "type": "address"
        }
      ],
      "payable": false,
      "stateMutability": "view",
      "type": "function"
    },
    {
      "inputs": [],
      "payable": false,
      "stateMutability": "nonpayable",
      "type": "constructor"
    },
    {
      "constant": false,
      "inputs": [
        {
          "name": "_name",
          "type": "string"
        },
        {
          "name": "_zipCode",
          "type": "uint256"
        }
      ],
      "name": "RegisterFoodSupplier",
      "outputs": [],
      "payable": false,
      "stateMutability": "nonpayable",
      "type": "function"
    },
    {
      "constant": false,
      "inputs": [
        {
          "name": "_name",
          "type": "string"
        },
        {
          "name": "_zipCode",
          "type": "uint256"
        }
      ],
      "name": "RegisterUser",
      "outputs": [],
      "payable": false,
      "stateMutability": "nonpayable",
      "type": "function"
    },
    {
      "constant": true,
      "inputs": [
        {
          "name": "_foodSupplier",
          "type": "address"
        }
      ],
      "name": "WhatAreSupplierOffering",
      "outputs": [
        {
          "name": "",
          "type": "string"
        },
        {
          "name": "",
          "type": "string"
        }
      ],
      "payable": false,
      "stateMutability": "view",
      "type": "function"
    },
    {
      "constant": false,
      "inputs": [
        {
          "name": "_JSONlist",
          "type": "string"
        }
      ],
      "name": "SetOfferings",
      "outputs": [],
      "payable": false,
      "stateMutability": "nonpayable",
      "type": "function"
    },
    {
      "constant": false,
      "inputs": [
        {
          "name": "ind",
          "type": "uint256"
        }
      ],
      "name": "SetStatus",
      "outputs": [],
      "payable": false,
      "stateMutability": "nonpayable",
      "type": "function"
    },
    {
      "constant": false,
      "inputs": [
        {
          "name": "_name",
          "type": "string"
        },
        {
          "name": "_zipCode",
          "type": "uint256"
        },
        {
          "name": "_accepted",
          "type": "string"
        },
        {
          "name": "_restricted",
          "type": "string"
        },
        {
          "name": "_status",
          "type": "bool"
        }
      ],
      "name": "UpdateSupplier",
      "outputs": [],
      "payable": false,
      "stateMutability": "nonpayable",
      "type": "function"
    },
    {
      "constant": false,
      "inputs": [
        {
          "name": "_name",
          "type": "string"
        },
        {
          "name": "_zipCode",
          "type": "uint256"
        }
      ],
      "name": "UpdateUser",
      "outputs": [],
      "payable": false,
      "stateMutability": "nonpayable",
      "type": "function"
    },
    {
      "constant": false,
      "inputs": [],
      "name": "withdraw",
      "outputs": [],
      "payable": false,
      "stateMutability": "nonpayable",
      "type": "function"
    }
  ],
  "bytecode": "0x60806040526000600155600060025534801561001a57600080fd5b50336000806101000a81548173ffffffffffffffffffffffffffffffffffffffff021916908373ffffffffffffffffffffffffffffffffffffffff160217905550611ac58061006a6000396000f3006080604052600436106100e6576000357c0100000000000000000000000000000000000000000000000000000000900463ffffffff16806312a422fd146100eb57806316dc15fe1461015e578063287d2abc1461030b5780633ccfd60b14610378578063472dde001461038f57806363d69bde146103bc5780638da5cb5b146104c75780639be10b801461051e5780639c86a1c114610591578063a5720770146105fa578063a720d24d14610629578063a87430ba14610654578063ac6cbc7a14610717578063bff1f9e11461083f578063ca8bdccd1461086a578063e4902400146108dd575b600080fd5b3480156100f757600080fd5b5061015c600480360381019080803590602001908201803590602001908080601f01602080910402602001604051908101604052809392919081815260200183838082843782019150505050505091929192908035906020019092919050505061094a565b005b34801561016a57600080fd5b5061019f600480360381019080803573ffffffffffffffffffffffffffffffffffffffff169060200190929190505050610a94565b6040518087815260200180602001868152602001806020018060200185151515158152602001848103845289818151815260200191508051906020019080838360005b838110156101fd5780820151818401526020810190506101e2565b50505050905090810190601f16801561022a5780820380516001836020036101000a031916815260200191505b50848103835287818151815260200191508051906020019080838360005b83811015610263578082015181840152602081019050610248565b50505050905090810190601f1680156102905780820380516001836020036101000a031916815260200191505b50848103825286818151815260200191508051906020019080838360005b838110156102c95780820151818401526020810190506102ae565b50505050905090810190601f1680156102f65780820380516001836020036101000a031916815260200191505b50995050505050505050505060405180910390f35b34801561031757600080fd5b5061033660048036038101908080359060200190929190505050610ca5565b604051808273ffffffffffffffffffffffffffffffffffffffff1673ffffffffffffffffffffffffffffffffffffffff16815260200191505060405180910390f35b34801561038457600080fd5b5061038d610ce3565b005b34801561039b57600080fd5b506103ba60048036038101908080359060200190929190505050610dbf565b005b3480156103c857600080fd5b506104c5600480360381019080803590602001908201803590602001908080601f016020809104026020016040519081016040528093929190818152602001838380828437820191505050505050919291929080359060200190929190803590602001908201803590602001908080601f0160208091040260200160405190810160405280939291908181526020018383808284378201915050505050509192919290803590602001908201803590602001908080601f0160208091040260200160405190810160405280939291908181526020018383808284378201915050505050509192919290803515159060200190929190505050610e56565b005b3480156104d357600080fd5b506104dc610ff1565b604051808273ffffffffffffffffffffffffffffffffffffffff1673ffffffffffffffffffffffffffffffffffffffff16815260200191505060405180910390f35b34801561052a57600080fd5b5061058f600480360381019080803590602001908201803590602001908080601f016020809104026020016040519081016040528093929190818152602001838380828437820191505050505050919291929080359060200190929190505050611016565b005b34801561059d57600080fd5b506105f8600480360381019080803590602001908201803590602001908080601f0160208091040260200160405190810160405280939291908181526020018383808284378201915050505050509192919290505050611268565b005b34801561060657600080fd5b5061060f6113a3565b604051808215151515815260200191505060405180910390f35b34801561063557600080fd5b5061063e6113b6565b6040518082815260200191505060405180910390f35b34801561066057600080fd5b50610695600480360381019080803573ffffffffffffffffffffffffffffffffffffffff1690602001909291905050506113bc565b6040518080602001838152602001828103825284818151815260200191508051906020019080838360005b838110156106db5780820151818401526020810190506106c0565b50505050905090810190601f1680156107085780820380516001836020036101000a031916815260200191505b50935050505060405180910390f35b34801561072357600080fd5b50610758600480360381019080803573ffffffffffffffffffffffffffffffffffffffff169060200190929190505050611478565b604051808060200180602001838103835285818151815260200191508051906020019080838360005b8381101561079c578082015181840152602081019050610781565b50505050905090810190601f1680156107c95780820380516001836020036101000a031916815260200191505b50838103825284818151815260200191508051906020019080838360005b838110156108025780820151818401526020810190506107e7565b50505050905090810190601f16801561082f5780820380516001836020036101000a031916815260200191505b5094505050505060405180910390f35b34801561084b57600080fd5b506108546116fb565b6040518082815260200191505060405180910390f35b34801561087657600080fd5b506108db600480360381019080803590602001908201803590602001908080601f016020809104026020016040519081016040528093929190818152602001838380828437820191505050505050919291929080359060200190929190505050611701565b005b3480156108e957600080fd5b50610908600480360381019080803590602001909291905050506118e3565b604051808273ffffffffffffffffffffffffffffffffffffffff1673ffffffffffffffffffffffffffffffffffffffff16815260200191505060405180910390f35b600080600360003373ffffffffffffffffffffffffffffffffffffffff1673ffffffffffffffffffffffffffffffffffffffff1681526020019081526020016000206002015414151515610a2c576040517f08c379a00000000000000000000000000000000000000000000000000000000081526004018080602001828103825260218152602001807f536f7272792c20796f7520617265206e6f74207265676973746572656420796581526020017f740000000000000000000000000000000000000000000000000000000000000081525060400191505060405180910390fd5b600460003373ffffffffffffffffffffffffffffffffffffffff1673ffffffffffffffffffffffffffffffffffffffff168152602001908152602001600020905082816000019080519060200190610a85929190611921565b50818160010181905550505050565b6003602052806000526040600020600091509050806000015490806001018054600181600116156101000203166002900480601f016020809104026020016040519081016040528092919081815260200182805460018160011615610100020316600290048015610b465780601f10610b1b57610100808354040283529160200191610b46565b820191906000526020600020905b815481529060010190602001808311610b2957829003601f168201915b505050505090806002015490806003018054600181600116156101000203166002900480601f016020809104026020016040519081016040528092919081815260200182805460018160011615610100020316600290048015610bea5780601f10610bbf57610100808354040283529160200191610bea565b820191906000526020600020905b815481529060010190602001808311610bcd57829003601f168201915b505050505090806004018054600181600116156101000203166002900480601f016020809104026020016040519081016040528092919081815260200182805460018160011615610100020316600290048015610c885780601f10610c5d57610100808354040283529160200191610c88565b820191906000526020600020905b815481529060010190602001808311610c6b57829003601f168201915b5050505050908060050160009054906101000a900460ff16905086565b600581815481101515610cb457fe5b906000526020600020016000915054906101000a900473ffffffffffffffffffffffffffffffffffffffff1681565b6000809054906101000a900473ffffffffffffffffffffffffffffffffffffffff1673ffffffffffffffffffffffffffffffffffffffff163373ffffffffffffffffffffffffffffffffffffffff16141515610d3e57600080fd5b6000809054906101000a900473ffffffffffffffffffffffffffffffffffffffff1673ffffffffffffffffffffffffffffffffffffffff166108fc3073ffffffffffffffffffffffffffffffffffffffff16319081150290604051600060405180830381858888f19350505050158015610dbc573d6000803e3d6000fd5b50565b600060036000600584815481101515610dd457fe5b9060005260206000200160009054906101000a900473ffffffffffffffffffffffffffffffffffffffff1673ffffffffffffffffffffffffffffffffffffffff1673ffffffffffffffffffffffffffffffffffffffff16815260200190815260200160002060050160006101000a81548160ff02191690831515021790555050565b600080600360003373ffffffffffffffffffffffffffffffffffffffff1673ffffffffffffffffffffffffffffffffffffffff1681526020019081526020016000206002015414151515610f38576040517f08c379a00000000000000000000000000000000000000000000000000000000081526004018080602001828103825260218152602001807f536f7272792c20796f7520617265206e6f74207265676973746572656420796581526020017f740000000000000000000000000000000000000000000000000000000000000081525060400191505060405180910390fd5b600360003373ffffffffffffffffffffffffffffffffffffffff1673ffffffffffffffffffffffffffffffffffffffff168152602001908152602001600020905085816001019080519060200190610f91929190611921565b5084816002018190555083816003019080519060200190610fb3929190611921565b5082816004019080519060200190610fcc929190611921565b50818160050160006101000a81548160ff021916908315150217905550505050505050565b6000809054906101000a900473ffffffffffffffffffffffffffffffffffffffff1681565b61101e6119a1565b6000600360003373ffffffffffffffffffffffffffffffffffffffff1673ffffffffffffffffffffffffffffffffffffffff168152602001908152602001600020600201541415156110fe576040517f08c379a00000000000000000000000000000000000000000000000000000000081526004018080602001828103825260228152602001807f536f7272792c20796f75206861766520616c726561647920726567697374657281526020017f656400000000000000000000000000000000000000000000000000000000000081525060400191505060405180910390fd5b6002548160000181815250508281602001819052508181604001818152505080600360003373ffffffffffffffffffffffffffffffffffffffff1673ffffffffffffffffffffffffffffffffffffffff1681526020019081526020016000206000820151816000015560208201518160010190805190602001906111839291906119da565b506040820151816002015560608201518160030190805190602001906111aa9291906119da565b5060808201518160040190805190602001906111c79291906119da565b5060a08201518160050160006101000a81548160ff02191690831515021790555090505060053390806001815401808255809150509060018203906000526020600020016000909192909190916101000a81548173ffffffffffffffffffffffffffffffffffffffff021916908373ffffffffffffffffffffffffffffffffffffffff16021790555050600260008154809291906001019190505550505050565b6000600360003373ffffffffffffffffffffffffffffffffffffffff1673ffffffffffffffffffffffffffffffffffffffff1681526020019081526020016000206002015414151515611349576040517f08c379a00000000000000000000000000000000000000000000000000000000081526004018080602001828103825260218152602001807f536f7272792c20796f7520617265206e6f74207265676973746572656420796581526020017f740000000000000000000000000000000000000000000000000000000000000081525060400191505060405180910390fd5b80600360003373ffffffffffffffffffffffffffffffffffffffff1673ffffffffffffffffffffffffffffffffffffffff168152602001908152602001600020600301908051906020019061139f929190611921565b5050565b600060149054906101000a900460ff1681565b60025481565b6004602052806000526040600020600091509050806000018054600181600116156101000203166002900480601f0160208091040260200160405190810160405280929190818152602001828054600181600116156101000203166002900480156114685780601f1061143d57610100808354040283529160200191611468565b820191906000526020600020905b81548152906001019060200180831161144b57829003601f168201915b5050505050908060010154905082565b6060806000600360008573ffffffffffffffffffffffffffffffffffffffff1673ffffffffffffffffffffffffffffffffffffffff1681526020019081526020016000206002015414151515611536576040517f08c379a00000000000000000000000000000000000000000000000000000000081526004018080602001828103825260108152602001807f496e76616c696420737570706c6965720000000000000000000000000000000081525060200191505060405180910390fd5b600360008473ffffffffffffffffffffffffffffffffffffffff1673ffffffffffffffffffffffffffffffffffffffff168152602001908152602001600020600301600360008573ffffffffffffffffffffffffffffffffffffffff1673ffffffffffffffffffffffffffffffffffffffff168152602001908152602001600020600401818054600181600116156101000203166002900480601f01602080910402602001604051908101604052809291908181526020018280546001816001161561010002031660029004801561164f5780601f106116245761010080835404028352916020019161164f565b820191906000526020600020905b81548152906001019060200180831161163257829003601f168201915b50505050509150808054600181600116156101000203166002900480601f0160208091040260200160405190810160405280929190818152602001828054600181600116156101000203166002900480156116eb5780601f106116c0576101008083540402835291602001916116eb565b820191906000526020600020905b8154815290600101906020018083116116ce57829003601f168201915b5050505050905091509150915091565b60015481565b611709611a5a565b6000600460003373ffffffffffffffffffffffffffffffffffffffff1673ffffffffffffffffffffffffffffffffffffffff168152602001908152602001600020600101541415156117e9576040517f08c379a00000000000000000000000000000000000000000000000000000000081526004018080602001828103825260228152602001807f536f7272792c20796f75206861766520616c726561647920726567697374657281526020017f656400000000000000000000000000000000000000000000000000000000000081525060400191505060405180910390fd5b8281600001819052508181602001818152505080600460003373ffffffffffffffffffffffffffffffffffffffff1673ffffffffffffffffffffffffffffffffffffffff16815260200190815260200160002060008201518160000190805190602001906118589291906119da565b506020820151816001015590505060063390806001815401808255809150509060018203906000526020600020016000909192909190916101000a81548173ffffffffffffffffffffffffffffffffffffffff021916908373ffffffffffffffffffffffffffffffffffffffff16021790555050600160008154809291906001019190505550505050565b6006818154811015156118f257fe5b906000526020600020016000915054906101000a900473ffffffffffffffffffffffffffffffffffffffff1681565b828054600181600116156101000203166002900490600052602060002090601f016020900481019282601f1061196257805160ff1916838001178555611990565b82800160010185558215611990579182015b8281111561198f578251825591602001919060010190611974565b5b50905061199d9190611a74565b5090565b60c06040519081016040528060008152602001606081526020016000815260200160608152602001606081526020016000151581525090565b828054600181600116156101000203166002900490600052602060002090601f016020900481019282601f10611a1b57805160ff1916838001178555611a49565b82800160010185558215611a49579182015b82811115611a48578251825591602001919060010190611a2d565b5b509050611a569190611a74565b5090565b604080519081016040528060608152602001600081525090565b611a9691905b80821115611a92576000816000905550600101611a7a565b5090565b905600a165627a7a72305820046d42808fd94d642a68452438e14742f35e6174eca8b766137a4b999282a9900029",
  "source": "pragma solidity ^0.4.24;\n\ncontract FeedMe {\n    \n    address public owner;\n    bool public mutex;\n    \n    struct Supplier{\n        uint id;\n        string name;\n        uint zipCode;\n        string offering;\n        string restriction;\n        bool status;\n    }\n    \n    struct User{\n        string name;\n        uint zipCode;\n    }\n    \n    uint public totalUsers=0;\n    // uint public totalLocalSupCount=0;\n    uint public totalSuppliers=0;\n    // Supplier[] public localSuppliers;\n\n    mapping(address=>Supplier) public suppliers;\n    mapping(address=>User) public users;\n    \n    address[] public supplierAddrs;\n    address[] public userAddrs;\n    \n     \n    constructor() public {\n        owner = msg.sender;\n    }\n    \n    modifier MUTEX {\n\t\trequire(mutex == false);\n\t\tmutex = true;\n\t\t_;\n\t\tmutex = false;\n\t}\n    \n    modifier onlyOwner {\n        require(msg.sender == owner);\n        _;\n    }\n    \n    modifier hasNotRegistered{\n        require(suppliers[msg.sender].zipCode==0,\"Sorry, you have already registered\");\n        _;\n    }\n    \n    modifier hasRegistered{\n        require(suppliers[msg.sender].zipCode!=0,\"Sorry, you are not registered yet\");\n        _;\n    }\n    \n    modifier userHasNotRegistered{\n        require(users[msg.sender].zipCode==0,\"Sorry, you have already registered\");\n        _;\n    }\n    \n    modifier userHasRegistered{\n        require(users[msg.sender].zipCode!=0,\"Sorry, you are not registered yet\");\n        _;\n    }\n    \n    function RegisterFoodSupplier(string _name,uint _zipCode) public hasNotRegistered{\n        // Use MUTEX to prevent race conditions when registeßring suppliers.\n        // TODO: Add timeout to prevent bad actors succeeding in DOS.\n        // TODO: Add method for preventing duplicate names by presenting similar listings.\n        Supplier memory newSupplier;\n        newSupplier.id = totalSuppliers;\n        newSupplier.name = _name;\n        newSupplier.zipCode = _zipCode;\n        //newSupplier.offering = _offering;\n        //newSupplier.restriction = _restriction;\n        suppliers[msg.sender] = newSupplier;\n        supplierAddrs.push(msg.sender);\n        totalSuppliers++;\n    }\n    \n    function RegisterUser(string _name,uint _zipCode) public userHasNotRegistered{\n        User memory newUser;\n        newUser.name= _name;\n        newUser.zipCode = _zipCode;\n        users[msg.sender] = newUser;\n        userAddrs.push(msg.sender);\n        totalUsers++;\n    }\n    \n    modifier hasSupplier{\n        require(supplierAddrs.length>0,\"Sorry, No suppliers right now!\");\n        _;\n    }\n    \n    function WhatAreSupplierOffering(address _foodSupplier) public view returns (string,string) {\n        // For Adults, for children.\n        // AKA getOfferings()\n        // delegate\n        require(suppliers[_foodSupplier].zipCode!=0,\"Invalid supplier\");\n        return (suppliers[_foodSupplier].offering,suppliers[_foodSupplier].restriction);\n    }\n    \n    function SetOfferings(string _JSONlist) public hasRegistered {\n        suppliers[msg.sender].offering = _JSONlist;\n    }\n    \n    function SetStatus(uint ind) public{\n        suppliers[supplierAddrs[ind]].status = false;\n    }\n    \n    function UpdateSupplier(string _name, uint _zipCode, string _accepted,string _restricted,bool _status) public hasRegistered{\n        Supplier storage supplier = suppliers[msg.sender];\n        supplier.name = _name;\n        supplier.zipCode = _zipCode;\n        supplier.offering = _accepted;\n        supplier.restriction = _restricted;\n        supplier.status = _status;\n    }\n    \n    function UpdateUser(string _name, uint _zipCode) public hasRegistered{\n        User storage user = users[msg.sender];\n        user.name = _name;\n        user.zipCode = _zipCode;\n    }\n    \n    function withdraw() public onlyOwner {\n        // Empty the Ethereum from this contract.\n        owner.transfer(address(this).balance);\n    }\n}",
  "sourcePath": "/Users/khosbayar/truffle/feedme/contracts/FeedMe.sol",
  "compiler": {
    "name": "solc",
    "version": "0.4.24+commit.e67f0147.Emscripten.clang"
  },
  "schemaVersion": "2.0.1",
  "updatedAt": "2018-09-02T01:58:15.693Z"
}